88000100000000CHPS CALL DEPOSIT           CALL DEPOSIT                    CD    CALLHKG19000101999123100000000
88000100000000CHPU HIGH YIELD USD         HIGH YIELD USD                  CD    CALLHKG19000101999123100000000
88000100000000CHSS CORP-DMB SAVING        CORP-DMB SAVING                 CD    CALLHKG19000101999123100000000
88000100000000CGPL TIME DEPOSIT           TIME DEPOSIT                    TD    CALLHKG19000101999123100000000
88000100000000CLLL LEVERAGE DEPOSIT       LEVERAGE DEPOSIT                TD    CALLHKG19000101999123100000000